{
  "contractName": "Coinjob",
  "abi": [
    {
      "inputs": [],
      "stateMutability": "nonpayable",
      "type": "constructor"
    },
    {
      "inputs": [
        {
          "internalType": "uint256",
          "name": "",
          "type": "uint256"
        }
      ],
      "name": "job",
      "outputs": [
        {
          "internalType": "uint256",
          "name": "id",
          "type": "uint256"
        },
        {
          "internalType": "address",
          "name": "writer",
          "type": "address"
        },
        {
          "internalType": "string",
          "name": "title",
          "type": "string"
        },
        {
          "internalType": "string",
          "name": "content",
          "type": "string"
        },
        {
          "internalType": "uint256",
          "name": "deadline",
          "type": "uint256"
        },
        {
          "internalType": "uint256",
          "name": "reward",
          "type": "uint256"
        },
        {
          "internalType": "uint256",
          "name": "dontdisturb",
          "type": "uint256"
        },
        {
          "internalType": "bool",
          "name": "accepted",
          "type": "bool"
        },
        {
          "internalType": "address",
          "name": "accepter",
          "type": "address"
        },
        {
          "internalType": "string",
          "name": "contact",
          "type": "string"
        },
        {
          "internalType": "enum Coinjob.status",
          "name": "stat",
          "type": "uint8"
        }
      ],
      "stateMutability": "view",
      "type": "function",
      "constant": true
    },
    {
      "inputs": [],
      "name": "owner",
      "outputs": [
        {
          "internalType": "address",
          "name": "",
          "type": "address"
        }
      ],
      "stateMutability": "view",
      "type": "function",
      "constant": true
    },
    {
      "inputs": [],
      "name": "postContract",
      "outputs": [
        {
          "internalType": "uint256",
          "name": "",
          "type": "uint256"
        }
      ],
      "stateMutability": "view",
      "type": "function",
      "constant": true
    },
    {
      "inputs": [],
      "name": "viewBalance",
      "outputs": [
        {
          "internalType": "uint256",
          "name": "b",
          "type": "uint256"
        },
        {
          "internalType": "uint256",
          "name": "o",
          "type": "uint256"
        }
      ],
      "stateMutability": "view",
      "type": "function",
      "constant": true
    },
    {
      "inputs": [
        {
          "internalType": "string",
          "name": "_title",
          "type": "string"
        },
        {
          "internalType": "string",
          "name": "_content",
          "type": "string"
        },
        {
          "internalType": "uint256",
          "name": "_dontdisturb",
          "type": "uint256"
        },
        {
          "internalType": "uint256",
          "name": "_deadline",
          "type": "uint256"
        }
      ],
      "name": "publishJob",
      "outputs": [],
      "stateMutability": "payable",
      "type": "function",
      "payable": true
    },
    {
      "inputs": [],
      "name": "allJob",
      "outputs": [
        {
          "components": [
            {
              "internalType": "uint256",
              "name": "id",
              "type": "uint256"
            },
            {
              "internalType": "address",
              "name": "writer",
              "type": "address"
            },
            {
              "internalType": "string",
              "name": "title",
              "type": "string"
            },
            {
              "internalType": "string",
              "name": "content",
              "type": "string"
            },
            {
              "internalType": "uint256",
              "name": "deadline",
              "type": "uint256"
            },
            {
              "internalType": "uint256",
              "name": "reward",
              "type": "uint256"
            },
            {
              "internalType": "uint256",
              "name": "dontdisturb",
              "type": "uint256"
            },
            {
              "internalType": "bool",
              "name": "accepted",
              "type": "bool"
            },
            {
              "internalType": "address",
              "name": "accepter",
              "type": "address"
            },
            {
              "internalType": "string",
              "name": "contact",
              "type": "string"
            },
            {
              "internalType": "enum Coinjob.status",
              "name": "stat",
              "type": "uint8"
            }
          ],
          "internalType": "struct Coinjob.Job[]",
          "name": "",
          "type": "tuple[]"
        }
      ],
      "stateMutability": "view",
      "type": "function",
      "constant": true
    },
    {
      "inputs": [
        {
          "internalType": "uint256",
          "name": "_number",
          "type": "uint256"
        },
        {
          "internalType": "string",
          "name": "_contact",
          "type": "string"
        }
      ],
      "name": "acceptJob",
      "outputs": [],
      "stateMutability": "payable",
      "type": "function",
      "payable": true
    },
    {
      "inputs": [
        {
          "internalType": "uint256",
          "name": "_number",
          "type": "uint256"
        }
      ],
      "name": "rescissionJob",
      "outputs": [],
      "stateMutability": "nonpayable",
      "type": "function"
    },
    {
      "inputs": [
        {
          "internalType": "uint256",
          "name": "_number",
          "type": "uint256"
        }
      ],
      "name": "workDone",
      "outputs": [],
      "stateMutability": "nonpayable",
      "type": "function"
    },
    {
      "inputs": [
        {
          "internalType": "uint256",
          "name": "_number",
          "type": "uint256"
        }
      ],
      "name": "finishJob",
      "outputs": [],
      "stateMutability": "nonpayable",
      "type": "function"
    },
    {
      "inputs": [
        {
          "internalType": "uint256",
          "name": "_number",
          "type": "uint256"
        }
      ],
      "name": "giveupJob",
      "outputs": [],
      "stateMutability": "nonpayable",
      "type": "function"
    },
    {
      "inputs": [
        {
          "internalType": "uint256",
          "name": "_page",
          "type": "uint256"
        },
        {
          "internalType": "uint256",
          "name": "_resultsPerPage",
          "type": "uint256"
        }
      ],
      "name": "getPaginatedSquares",
      "outputs": [
        {
          "components": [
            {
              "internalType": "uint256",
              "name": "id",
              "type": "uint256"
            },
            {
              "internalType": "address",
              "name": "writer",
              "type": "address"
            },
            {
              "internalType": "string",
              "name": "title",
              "type": "string"
            },
            {
              "internalType": "string",
              "name": "content",
              "type": "string"
            },
            {
              "internalType": "uint256",
              "name": "deadline",
              "type": "uint256"
            },
            {
              "internalType": "uint256",
              "name": "reward",
              "type": "uint256"
            },
            {
              "internalType": "uint256",
              "name": "dontdisturb",
              "type": "uint256"
            },
            {
              "internalType": "bool",
              "name": "accepted",
              "type": "bool"
            },
            {
              "internalType": "address",
              "name": "accepter",
              "type": "address"
            },
            {
              "internalType": "string",
              "name": "contact",
              "type": "string"
            },
            {
              "internalType": "enum Coinjob.status",
              "name": "stat",
              "type": "uint8"
            }
          ],
          "internalType": "struct Coinjob.Job[]",
          "name": "",
          "type": "tuple[]"
        }
      ],
      "stateMutability": "view",
      "type": "function",
      "constant": true
    }
  ],
  "bytecode": "0x608060405266b1a2bc2ec50000600155600060025534801561002057600080fd5b5033600360006101000a81548173ffffffffffffffffffffffffffffffffffffffff021916908373ffffffffffffffffffffffffffffffffffffffff160217905550612f9f806100716000396000f3fe6080604052600436106100a75760003560e01c8063aa2b3e5e11610064578063aa2b3e5e146101c7578063b0c4add1146101f0578063e47eb3a61461020c578063eff32b3d14610228578063f809cefa14610265578063f833012714610290576100a7565b80630a2eee30146100ac5780632329e48c146100d55780633ff1e05b1461011c5780634ad65106146101485780636e3589a2146101735780638da5cb5b1461019c575b600080fd5b3480156100b857600080fd5b506100d360048036038101906100ce91906120fe565b6102b9565b005b3480156100e157600080fd5b506100fc60048036038101906100f791906120fe565b610791565b6040516101139b9a99989796959493929190612760565b60405180910390f35b34801561012857600080fd5b506101316109ed565b60405161013f929190612820565b60405180910390f35b34801561015457600080fd5b5061015d610a8d565b60405161016a9190612745565b60405180910390f35b34801561017f57600080fd5b5061019a600480360381019061019591906120fe565b610a93565b005b3480156101a857600080fd5b506101b1610d08565b6040516101be91906125a8565b60405180910390f35b3480156101d357600080fd5b506101ee60048036038101906101e991906120fe565b610d2e565b005b61020a60048036038101906102059190612127565b610d31565b005b6102266004803603810190610221919061206b565b61103e565b005b34801561023457600080fd5b5061024f600480360381019061024a919061217b565b61131b565b60405161025c91906125c3565b60405180910390f35b34801561027157600080fd5b5061027a6118b2565b60405161028791906125c3565b60405180910390f35b34801561029c57600080fd5b506102b760048036038101906102b291906120fe565b611c3e565b005b600080549050811080156102ce575060008110155b61030d576040517f08c379a0000000000000000000000000000000000000000000000000000000008152600401610304906126c5565b60405180910390fd5b6000808281548110610348577f4e487b7100000000000000000000000000000000000000000000000000000000600052603260045260246000fd5b90600052602060002090600a020190508060070160019054906101000a900473ffffffffffffffffffffffffffffffffffffffff1673ffffffffffffffffffffffffffffffffffffffff163373ffffffffffffffffffffffffffffffffffffffff16146103ea576040517f08c379a00000000000000000000000000000000000000000000000000000000081526004016103e1906125e5565b60405180910390fd5b60016002811115610424577f4e487b7100000000000000000000000000000000000000000000000000000000600052602160045260246000fd5b8160090160009054906101000a900460ff16600281111561046e577f4e487b7100000000000000000000000000000000000000000000000000000000600052602160045260246000fd5b14156104af576040517f08c379a00000000000000000000000000000000000000000000000000000000081526004016104a690612685565b60405180910390fd5b8060010160009054906101000a900473ffffffffffffffffffffffffffffffffffffffff1673ffffffffffffffffffffffffffffffffffffffff163373ffffffffffffffffffffffffffffffffffffffff161415610620578060070160009054906101000a900460ff1615610559576040517f08c379a000000000000000000000000000000000000000000000000000000000815260040161055090612625565b60405180910390fd5b60018160090160006101000a81548160ff021916908360028111156105a7577f4e487b7100000000000000000000000000000000000000000000000000000000600052602160045260246000fd5b02179055508060010160009054906101000a900473ffffffffffffffffffffffffffffffffffffffff1673ffffffffffffffffffffffffffffffffffffffff166108fc82600501549081150290604051600060405180830381858888f1935050505015801561061a573d6000803e3d6000fd5b5061078d565b8060070160009054906101000a900460ff16610671576040517f08c379a000000000000000000000000000000000000000000000000000000000815260040161066890612645565b60405180910390fd5b60008160070160006101000a81548160ff021916908315150217905550604051806020016040528060008152508160080190805190602001906106b5929190611e8b565b508060070160019054906101000a900473ffffffffffffffffffffffffffffffffffffffff1673ffffffffffffffffffffffffffffffffffffffff166108fc82600601549081150290604051600060405180830381858888f19350505050158015610724573d6000803e3d6000fd5b508060010160009054906101000a900473ffffffffffffffffffffffffffffffffffffffff168160070160016101000a81548173ffffffffffffffffffffffffffffffffffffffff021916908373ffffffffffffffffffffffffffffffffffffffff1602179055505b5050565b600081815481106107a157600080fd5b90600052602060002090600a02016000915090508060000154908060010160009054906101000a900473ffffffffffffffffffffffffffffffffffffffff16908060020180546107f090612a98565b80601f016020809104026020016040519081016040528092919081815260200182805461081c90612a98565b80156108695780601f1061083e57610100808354040283529160200191610869565b820191906000526020600020905b81548152906001019060200180831161084c57829003601f168201915b50505050509080600301805461087e90612a98565b80601f01602080910402602001604051908101604052809291908181526020018280546108aa90612a98565b80156108f75780601f106108cc576101008083540402835291602001916108f7565b820191906000526020600020905b8154815290600101906020018083116108da57829003601f168201915b5050505050908060040154908060050154908060060154908060070160009054906101000a900460ff16908060070160019054906101000a900473ffffffffffffffffffffffffffffffffffffffff169080600801805461095790612a98565b80601f016020809104026020016040519081016040528092919081815260200182805461098390612a98565b80156109d05780601f106109a5576101008083540402835291602001916109d0565b820191906000526020600020905b8154815290600101906020018083116109b357829003601f168201915b5050505050908060090160009054906101000a900460ff1690508b565b600080600360009054906101000a900473ffffffffffffffffffffffffffffffffffffffff1673ffffffffffffffffffffffffffffffffffffffff163373ffffffffffffffffffffffffffffffffffffffff1614610a4a57600080fd5b479150600360009054906101000a900473ffffffffffffffffffffffffffffffffffffffff1673ffffffffffffffffffffffffffffffffffffffff163190509091565b60015481565b6000808281548110610ace577f4e487b7100000000000000000000000000000000000000000000000000000000600052603260045260246000fd5b90600052602060002090600a02019050600280811115610b17577f4e487b7100000000000000000000000000000000000000000000000000000000600052602160045260246000fd5b8160090160009054906101000a900460ff166002811115610b61577f4e487b7100000000000000000000000000000000000000000000000000000000600052602160045260246000fd5b14610ba1576040517f08c379a0000000000000000000000000000000000000000000000000000000008152600401610b9890612725565b60405180910390fd5b8060010160009054906101000a900473ffffffffffffffffffffffffffffffffffffffff1673ffffffffffffffffffffffffffffffffffffffff163373ffffffffffffffffffffffffffffffffffffffff1614610c33576040517f08c379a0000000000000000000000000000000000000000000000000000000008152600401610c2a906126a5565b60405180910390fd5b60018160090160006101000a81548160ff02191690836002811115610c81577f4e487b7100000000000000000000000000000000000000000000000000000000600052602160045260246000fd5b02179055508060070160019054906101000a900473ffffffffffffffffffffffffffffffffffffffff1673ffffffffffffffffffffffffffffffffffffffff166108fc82600601548360050154610cd89190612905565b9081150290604051600060405180830381858888f19350505050158015610d03573d6000803e3d6000fd5b505050565b600360009054906101000a900473ffffffffffffffffffffffffffffffffffffffff1681565b50565b60008054905082108015610d46575060008210155b610d85576040517f08c379a0000000000000000000000000000000000000000000000000000000008152600401610d7c906126c5565b60405180910390fd5b6000808381548110610dc0577f4e487b7100000000000000000000000000000000000000000000000000000000600052603260045260246000fd5b90600052602060002090600a020190508060010160009054906101000a900473ffffffffffffffffffffffffffffffffffffffff1673ffffffffffffffffffffffffffffffffffffffff163373ffffffffffffffffffffffffffffffffffffffff161415610e63576040517f08c379a0000000000000000000000000000000000000000000000000000000008152600401610e5a90612705565b60405180910390fd5b60016002811115610e9d577f4e487b7100000000000000000000000000000000000000000000000000000000600052602160045260246000fd5b8160090160009054906101000a900460ff166002811115610ee7577f4e487b7100000000000000000000000000000000000000000000000000000000600052602160045260246000fd5b1415610f28576040517f08c379a0000000000000000000000000000000000000000000000000000000008152600401610f1f90612685565b60405180910390fd5b8060070160009054906101000a900460ff1615610f7a576040517f08c379a0000000000000000000000000000000000000000000000000000000008152600401610f71906126e5565b60405180910390fd5b80600601543414610fc0576040517f08c379a0000000000000000000000000000000000000000000000000000000008152600401610fb790612605565b60405180910390fd5b338160070160016101000a81548173ffffffffffffffffffffffffffffffffffffffff021916908373ffffffffffffffffffffffffffffffffffffffff16021790555060018160070160006101000a81548160ff02191690831515021790555081816008019080519060200190611038929190611e8b565b50505050565b600154341015611083576040517f08c379a000000000000000000000000000000000000000000000000000000000815260040161107a90612665565b60405180910390fd5b600081426110919190612905565b9050600060405180610160016040528060008054905081526020013373ffffffffffffffffffffffffffffffffffffffff1681526020018781526020018681526020018381526020013481526020018581526020016000151581526020013373ffffffffffffffffffffffffffffffffffffffff1681526020016040518060200160405280600081525081526020016000600281111561115a577f4e487b7100000000000000000000000000000000000000000000000000000000600052602160045260246000fd5b815250905060008190806001815401808255809150506001900390600052602060002090600a02016000909190919091506000820151816000015560208201518160010160006101000a81548173ffffffffffffffffffffffffffffffffffffffff021916908373ffffffffffffffffffffffffffffffffffffffff16021790555060408201518160020190805190602001906111f8929190611e8b565b506060820151816003019080519060200190611215929190611e8b565b506080820151816004015560a0820151816005015560c0820151816006015560e08201518160070160006101000a81548160ff0219169083151502179055506101008201518160070160016101000a81548173ffffffffffffffffffffffffffffffffffffffff021916908373ffffffffffffffffffffffffffffffffffffffff1602179055506101208201518160080190805190602001906112b9929190611e8b565b506101408201518160090160006101000a81548160ff0219169083600281111561130c577f4e487b7100000000000000000000000000000000000000000000000000000000600052602160045260246000fd5b02179055505050505050505050565b6060600082848461132c919061295b565b61133691906129b5565b905060008080549050148061135b5750600160008054905061135891906129b5565b81115b156113e357600067ffffffffffffffff8111156113a1577f4e487b7100000000000000000000000000000000000000000000000000000000600052604160045260246000fd5b6040519080825280602002602001820160405280156113da57816020015b6113c7611f11565b8152602001906001900390816113bf5790505b509150506118ac565b600083905060008054905084866113fa919061295b565b111561141457836000805490506114119190612b44565b90505b60008167ffffffffffffffff811115611456577f4e487b7100000000000000000000000000000000000000000000000000000000600052604160045260246000fd5b60405190808252806020026020018201604052801561148f57816020015b61147c611f11565b8152602001906001900390816114745790505b50905060005b86866114a1919061295b565b8410156118a45760008054905084101561187e57600084815481106114ef577f4e487b7100000000000000000000000000000000000000000000000000000000600052603260045260246000fd5b90600052602060002090600a020160405180610160016040529081600082015481526020016001820160009054906101000a900473ffffffffffffffffffffffffffffffffffffffff1673ffffffffffffffffffffffffffffffffffffffff1673ffffffffffffffffffffffffffffffffffffffff16815260200160028201805461157990612a98565b80601f01602080910402602001604051908101604052809291908181526020018280546115a590612a98565b80156115f25780601f106115c7576101008083540402835291602001916115f2565b820191906000526020600020905b8154815290600101906020018083116115d557829003601f168201915b5050505050815260200160038201805461160b90612a98565b80601f016020809104026020016040519081016040528092919081815260200182805461163790612a98565b80156116845780601f1061165957610100808354040283529160200191611684565b820191906000526020600020905b81548152906001019060200180831161166757829003601f168201915b505050505081526020016004820154815260200160058201548152602001600682015481526020016007820160009054906101000a900460ff161515151581526020016007820160019054906101000a900473ffffffffffffffffffffffffffffffffffffffff1673ffffffffffffffffffffffffffffffffffffffff1673ffffffffffffffffffffffffffffffffffffffff16815260200160088201805461172c90612a98565b80601f016020809104026020016040519081016040528092919081815260200182805461175890612a98565b80156117a55780601f1061177a576101008083540402835291602001916117a5565b820191906000526020600020905b81548152906001019060200180831161178857829003601f168201915b505050505081526020016009820160009054906101000a900460ff1660028111156117f9577f4e487b7100000000000000000000000000000000000000000000000000000000600052602160045260246000fd5b6002811115611831577f4e487b7100000000000000000000000000000000000000000000000000000000600052602160045260246000fd5b8152505082828151811061186e577f4e487b7100000000000000000000000000000000000000000000000000000000600052603260045260246000fd5b6020026020010181905250611883565b6118a4565b808061188e90612afb565b915050838061189c90612afb565b945050611495565b819450505050505b92915050565b60606000805480602002602001604051908101604052809291908181526020016000905b82821015611c3557838290600052602060002090600a020160405180610160016040529081600082015481526020016001820160009054906101000a900473ffffffffffffffffffffffffffffffffffffffff1673ffffffffffffffffffffffffffffffffffffffff1673ffffffffffffffffffffffffffffffffffffffff16815260200160028201805461196a90612a98565b80601f016020809104026020016040519081016040528092919081815260200182805461199690612a98565b80156119e35780601f106119b8576101008083540402835291602001916119e3565b820191906000526020600020905b8154815290600101906020018083116119c657829003601f168201915b505050505081526020016003820180546119fc90612a98565b80601f0160208091040260200160405190810160405280929190818152602001828054611a2890612a98565b8015611a755780601f10611a4a57610100808354040283529160200191611a75565b820191906000526020600020905b815481529060010190602001808311611a5857829003601f168201915b505050505081526020016004820154815260200160058201548152602001600682015481526020016007820160009054906101000a900460ff161515151581526020016007820160019054906101000a900473ffffffffffffffffffffffffffffffffffffffff1673ffffffffffffffffffffffffffffffffffffffff1673ffffffffffffffffffffffffffffffffffffffff168152602001600882018054611b1d90612a98565b80601f0160208091040260200160405190810160405280929190818152602001828054611b4990612a98565b8015611b965780601f10611b6b57610100808354040283529160200191611b96565b820191906000526020600020905b815481529060010190602001808311611b7957829003601f168201915b505050505081526020016009820160009054906101000a900460ff166002811115611bea577f4e487b7100000000000000000000000000000000000000000000000000000000600052602160045260246000fd5b6002811115611c22577f4e487b7100000000000000000000000000000000000000000000000000000000600052602160045260246000fd5b81525050815260200190600101906118d6565b50505050905090565b60008054905081108015611c53575060008110155b611c92576040517f08c379a0000000000000000000000000000000000000000000000000000000008152600401611c89906126c5565b60405180910390fd5b6000808281548110611ccd577f4e487b7100000000000000000000000000000000000000000000000000000000600052603260045260246000fd5b90600052602060002090600a020190508060070160019054906101000a900473ffffffffffffffffffffffffffffffffffffffff1673ffffffffffffffffffffffffffffffffffffffff163373ffffffffffffffffffffffffffffffffffffffff1614611d6f576040517f08c379a0000000000000000000000000000000000000000000000000000000008152600401611d66906125e5565b60405180910390fd5b60016002811115611da9577f4e487b7100000000000000000000000000000000000000000000000000000000600052602160045260246000fd5b8160090160009054906101000a900460ff166002811115611df3577f4e487b7100000000000000000000000000000000000000000000000000000000600052602160045260246000fd5b1415611e34576040517f08c379a0000000000000000000000000000000000000000000000000000000008152600401611e2b90612685565b60405180910390fd5b60028160090160006101000a81548160ff02191690836002811115611e82577f4e487b7100000000000000000000000000000000000000000000000000000000600052602160045260246000fd5b02179055505050565b828054611e9790612a98565b90600052602060002090601f016020900481019282611eb95760008555611f00565b82601f10611ed257805160ff1916838001178555611f00565b82800160010185558215611f00579182015b82811115611eff578251825591602001919060010190611ee4565b5b509050611f0d9190611fd1565b5090565b60405180610160016040528060008152602001600073ffffffffffffffffffffffffffffffffffffffff1681526020016060815260200160608152602001600081526020016000815260200160008152602001600015158152602001600073ffffffffffffffffffffffffffffffffffffffff1681526020016060815260200160006002811115611fcb577f4e487b7100000000000000000000000000000000000000000000000000000000600052602160045260246000fd5b81525090565b5b80821115611fea576000816000905550600101611fd2565b5090565b6000612001611ffc8461286e565b612849565b90508281526020810184848401111561201957600080fd5b612024848285612a56565b509392505050565b600082601f83011261203d57600080fd5b813561204d848260208601611fee565b91505092915050565b60008135905061206581612f52565b92915050565b6000806000806080858703121561208157600080fd5b600085013567ffffffffffffffff81111561209b57600080fd5b6120a78782880161202c565b945050602085013567ffffffffffffffff8111156120c457600080fd5b6120d08782880161202c565b93505060406120e187828801612056565b92505060606120f287828801612056565b91505092959194509250565b60006020828403121561211057600080fd5b600061211e84828501612056565b91505092915050565b6000806040838503121561213a57600080fd5b600061214885828601612056565b925050602083013567ffffffffffffffff81111561216557600080fd5b6121718582860161202c565b9150509250929050565b6000806040838503121561218e57600080fd5b600061219c85828601612056565b92505060206121ad85828601612056565b9150509250929050565b60006121c3838361248d565b905092915050565b6121d4816129e9565b82525050565b6121e3816129e9565b82525050565b60006121f4826128af565b6121fe81856128d2565b9350836020820285016122108561289f565b8060005b8581101561224c578484038952815161222d85826121b7565b9450612238836128c5565b925060208a01995050600181019050612214565b50829750879550505050505092915050565b612267816129fb565b82525050565b612276816129fb565b82525050565b61228581612a44565b82525050565b61229481612a44565b82525050565b60006122a5826128ba565b6122af81856128e3565b93506122bf818560208601612a65565b6122c881612c60565b840191505092915050565b60006122de826128ba565b6122e881856128f4565b93506122f8818560208601612a65565b61230181612c60565b840191505092915050565b6000612319603f836128f4565b915061232482612c71565b604082019050919050565b600061233c6058836128f4565b915061234782612cc0565b606082019050919050565b600061235f603b836128f4565b915061236a82612d35565b604082019050919050565b60006123826031836128f4565b915061238d82612d84565b604082019050919050565b60006123a56017836128f4565b91506123b082612dd3565b602082019050919050565b60006123c86026836128f4565b91506123d382612dfc565b604082019050919050565b60006123eb601e836128f4565b91506123f682612e4b565b602082019050919050565b600061240e601f836128f4565b915061241982612e74565b602082019050919050565b6000612431600f836128f4565b915061243c82612e9d565b602082019050919050565b6000612454601f836128f4565b915061245f82612ec6565b602082019050919050565b60006124776032836128f4565b915061248282612eef565b604082019050919050565b6000610160830160008301516124a6600086018261258a565b5060208301516124b960208601826121cb565b50604083015184820360408601526124d1828261229a565b915050606083015184820360608601526124eb828261229a565b9150506080830151612500608086018261258a565b5060a083015161251360a086018261258a565b5060c083015161252660c086018261258a565b5060e083015161253960e086018261225e565b5061010083015161254e6101008601826121cb565b50610120830151848203610120860152612568828261229a565b91505061014083015161257f61014086018261227c565b508091505092915050565b61259381612a3a565b82525050565b6125a281612a3a565b82525050565b60006020820190506125bd60008301846121da565b92915050565b600060208201905081810360008301526125dd81846121e9565b905092915050565b600060208201905081810360008301526125fe8161230c565b9050919050565b6000602082019050818103600083015261261e8161232f565b9050919050565b6000602082019050818103600083015261263e81612352565b9050919050565b6000602082019050818103600083015261265e81612375565b9050919050565b6000602082019050818103600083015261267e81612398565b9050919050565b6000602082019050818103600083015261269e816123bb565b9050919050565b600060208201905081810360008301526126be816123de565b9050919050565b600060208201905081810360008301526126de81612401565b9050919050565b600060208201905081810360008301526126fe81612424565b9050919050565b6000602082019050818103600083015261271e81612447565b9050919050565b6000602082019050818103600083015261273e8161246a565b9050919050565b600060208201905061275a6000830184612599565b92915050565b600061016082019050612776600083018e612599565b612783602083018d6121da565b8181036040830152612795818c6122d3565b905081810360608301526127a9818b6122d3565b90506127b8608083018a612599565b6127c560a0830189612599565b6127d260c0830188612599565b6127df60e083018761226d565b6127ed6101008301866121da565b81810361012083015261280081856122d3565b905061281061014083018461228b565b9c9b505050505050505050505050565b60006040820190506128356000830185612599565b6128426020830184612599565b9392505050565b6000612853612864565b905061285f8282612aca565b919050565b6000604051905090565b600067ffffffffffffffff82111561288957612888612c31565b5b61289282612c60565b9050602081019050919050565b6000819050602082019050919050565b600081519050919050565b600081519050919050565b6000602082019050919050565b600082825260208201905092915050565b600082825260208201905092915050565b600082825260208201905092915050565b600061291082612a3a565b915061291b83612a3a565b9250827fffffffffffffffffffffffffffffffffffffffffffffffffffffffffffffffff038211156129505761294f612b75565b5b828201905092915050565b600061296682612a3a565b915061297183612a3a565b9250817fffffffffffffffffffffffffffffffffffffffffffffffffffffffffffffffff04831182151516156129aa576129a9612b75565b5b828202905092915050565b60006129c082612a3a565b91506129cb83612a3a565b9250828210156129de576129dd612b75565b5b828203905092915050565b60006129f482612a1a565b9050919050565b60008115159050919050565b6000819050612a1582612f3e565b919050565b600073ffffffffffffffffffffffffffffffffffffffff82169050919050565b6000819050919050565b6000612a4f82612a07565b9050919050565b82818337600083830152505050565b60005b83811015612a83578082015181840152602081019050612a68565b83811115612a92576000848401525b50505050565b60006002820490506001821680612ab057607f821691505b60208210811415612ac457612ac3612c02565b5b50919050565b612ad382612c60565b810181811067ffffffffffffffff82111715612af257612af1612c31565b5b80604052505050565b6000612b0682612a3a565b91507fffffffffffffffffffffffffffffffffffffffffffffffffffffffffffffffff821415612b3957612b38612b75565b5b600182019050919050565b6000612b4f82612a3a565b9150612b5a83612a3a565b925082612b6a57612b69612ba4565b5b828206905092915050565b7f4e487b7100000000000000000000000000000000000000000000000000000000600052601160045260246000fd5b7f4e487b7100000000000000000000000000000000000000000000000000000000600052601260045260246000fd5b7f4e487b7100000000000000000000000000000000000000000000000000000000600052602160045260246000fd5b7f4e487b7100000000000000000000000000000000000000000000000000000000600052602260045260246000fd5b7f4e487b7100000000000000000000000000000000000000000000000000000000600052604160045260246000fd5b6000601f19601f8301169050919050565b7f596f7520417265204e6f7420746865204d656d626572206f66204a6f622e205060008201527f6c6561736520436865636b20796f75722057616c6c6574204164647265737300602082015250565b7f596f752053686f756c642050617920746f2073686f7720796f7520617265206e60008201527f6f74207363616d6d6572202820796f7572206d6f6e65792077696c6c2070617960208201527f6261636b206166746572206a6f6220697320646f6e6520290000000000000000604082015250565b7f596f752043616e206e6f7420436c6f736520596f7572204a6f62207768696c6560008201527f20536f6d656f6e6520697320576f726b696e6720666f7220796f750000000000602082015250565b7f4a6f62204973204e6f7420537461727465642e20536f2054686572652069732060008201527f6e6f2077617920746f2067697665207570000000000000000000000000000000602082015250565b7f4a6f622052657761726420697320746f6f206368656170000000000000000000600082015250565b7f54686973204a6f6220697320446f6e652e204a6f6220476f6f64204a6f62204260008201527f6164204a6f620000000000000000000000000000000000000000000000000000602082015250565b7f4f6e6c79205772697465722063616e2066696e69736820746865206a6f620000600082015250565b7f596f7520417265204c6f6f6b696e6720466f7220412057726f6e67204a6f6200600082015250565b7f4a6f6220496e2050726f67726573730000000000000000000000000000000000600082015250565b7f596f752043616e277420436f2d576f726b207769746820596f757273656c6600600082015250565b7f576f726b657220646f65736e27742066696e69736564206a6f62206f7220416c60008201527f72656164792066696e6973686564206a6f620000000000000000000000000000602082015250565b60038110612f4f57612f4e612bd3565b5b50565b612f5b81612a3a565b8114612f6657600080fd5b5056fea26469706673582212203e8dcd959f147b83ed2c979490235e48565d03b0350197c857cb0795556112c564736f6c63430008040033",
  "immutableReferences": {},
  "source": "pragma solidity >=0.8.0 <0.9.0;\r\npragma experimental ABIEncoderV2;\r\ncontract Coinjob {\r\n    \r\n    enum status { open, finish, workerDone}\r\n    // open =  \r\n    // finish =   \r\n    // workerDone =     \r\n    // bossDone =      (    )\r\n    \r\n    // workerDone  bossDone Job accepted true     .\r\n    \r\n    struct Job{\r\n        uint id;\r\n        address writer;\r\n        string title;\r\n        string content;\r\n        uint deadline;\r\n        uint reward;\r\n        uint dontdisturb;\r\n        bool accepted;\r\n        address accepter;\r\n        string contact; //     (?)\r\n        status stat;\r\n    }\r\n    \r\n    Job[] public job;\r\n    \r\n    uint public postContract = 0.05 ether;\r\n    // uint public DoNotDisturb = 0.00005 ether;\r\n    \r\n    uint Coinjob_ether = 0;\r\n    \r\n    address public owner;\r\n    \r\n    \r\n    modifier onlyOwner(){\r\n        require(msg.sender == owner);\r\n        _;\r\n    }\r\n    \r\n    constructor(){\r\n        owner = msg.sender;\r\n    }\r\n\r\n    \r\n    function viewBalance() view onlyOwner public returns (uint256 b,uint256 o){\r\n        b = address(this).balance;\r\n        o = owner.balance;\r\n    }\r\n    \r\n    \r\n    function publishJob(string memory _title, string memory _content,uint _dontdisturb, uint _deadline) payable public { // dontdisturb  ether\r\n        require(msg.value >= postContract, \"Job Reward is too cheap\");\r\n        // require(_dontdisturb >= DoNotDisturb, \"DoNotDisturb\");\r\n        uint deadline = block.timestamp + _deadline; \r\n        Job memory newJob = Job(job.length, msg.sender, _title, _content, deadline, msg.value,_dontdisturb,false, msg.sender,\"\", status.open);\r\n        job.push(newJob);\r\n    }\r\n    \r\n    function allJob() public view returns (Job[] memory){\r\n        return job;\r\n    }\r\n    \r\n    // function getJob(uint _number) public view returns(address writer, string memory title, string memory content, uint deadline, uint reward){\r\n    //     require(_number < job.length && _number >= 0, \"You Are Looking For A Wrong Job\");\r\n    //     writer = job[_number].writer;\r\n    //     title = job[_number].title;\r\n    //     content = job[_number].content;\r\n    //     deadline = job[_number].deadline;\r\n    //     reward = job[_number].reward;\r\n    // }\r\n\r\n    function acceptJob(uint _number, string memory _contact) payable public {\r\n        require(_number < job.length && _number >= 0, \"You Are Looking For A Wrong Job\");\r\n        Job storage _thisjob = job[_number];\r\n        require(msg.sender != _thisjob.writer, \"You Can't Co-Work with Yourself\");\r\n        require(_thisjob.stat != status.finish, \"This Job is Done. Job Good Job Bad Job\");\r\n        require(!_thisjob.accepted, \"Job In Progress\");\r\n        require(msg.value == _thisjob.dontdisturb, \"You Should Pay to show you are not scammer ( your money will payback after job is done )\");\r\n        _thisjob.accepter = msg.sender;\r\n        _thisjob.accepted = true;\r\n        _thisjob.contact = _contact;\r\n    }\r\n    \r\n    function rescissionJob(uint _number) public {\r\n        //    \r\n    }\r\n    \r\n    function workDone(uint _number) public {\r\n        require(_number < job.length && _number >= 0, \"You Are Looking For A Wrong Job\");\r\n        Job storage _thisjob = job[_number];\r\n        require(msg.sender == _thisjob.accepter, \"You Are Not the Member of Job. Please Check your Wallet Address\");\r\n        require(_thisjob.stat != status.finish, \"This Job is Done. Job Good Job Bad Job\");\r\n        _thisjob.stat = status.workerDone;\r\n    }\r\n    \r\n    function finishJob(uint _number) public {\r\n        Job storage _thisjob = job[_number];\r\n        require(_thisjob.stat == status.workerDone, \"Worker doesn't finised job or Already finished job\");\r\n        require(msg.sender == _thisjob.writer, \"Only Writer can finish the job\");\r\n        _thisjob.stat = status.finish;\r\n        payable(_thisjob.accepter).transfer(_thisjob.reward + _thisjob.dontdisturb);\r\n    }\r\n\r\n    function giveupJob(uint _number) public {\r\n        require(_number < job.length && _number >= 0, \"You Are Looking For A Wrong Job\");\r\n        Job storage _thisjob = job[_number];\r\n        require(msg.sender == _thisjob.accepter, \"You Are Not the Member of Job. Please Check your Wallet Address\");\r\n        require(_thisjob.stat != status.finish, \"This Job is Done. Job Good Job Bad Job\");\r\n        if (msg.sender == _thisjob.writer){\r\n            require(!_thisjob.accepted, \"You Can not Close Your Job while Someone is Working for you\");\r\n            _thisjob.stat = status.finish;\r\n            payable(_thisjob.writer).transfer(_thisjob.reward);\r\n        }\r\n        else{\r\n            require(_thisjob.accepted, \"Job Is Not Started. So There is no way to give up\");\r\n            _thisjob.accepted = false;\r\n            _thisjob.contact = \"\";\r\n            payable(_thisjob.accepter).transfer(_thisjob.dontdisturb);\r\n            _thisjob.accepter = _thisjob.writer;\r\n        }\r\n    }\r\n\r\n    function getPaginatedSquares( uint256 _page, uint256 _resultsPerPage  )  public  view   returns (Job[] memory)\r\n    {\r\n        uint256 _jobIndex = _resultsPerPage * _page - _resultsPerPage;\r\n        \r\n        if (\r\n            job.length == 0 || \r\n            _jobIndex > job.length - 1\r\n        ) {\r\n            return new Job[](0);\r\n        }\r\n        \r\n        uint _size = _resultsPerPage;\r\n        if ( _page * _resultsPerPage > job.length ){\r\n            _size = job.length % _resultsPerPage;\r\n        }\r\n        Job[] memory _jobs = new Job[](_size);\r\n        uint256 _returnCounter = 0;\r\n        for ( _jobIndex; _jobIndex < _resultsPerPage * _page;  _jobIndex++ ) {\r\n            if (_jobIndex < job.length) {\r\n                _jobs[_returnCounter] = job[_jobIndex];\r\n            } else {\r\n                break;\r\n            }\r\n            _returnCounter ++;\r\n        }\r\n        \r\n        return _jobs;\r\n    }\r\n\r\n}\r\n",
  "sourcePath": "D:/Backup/Projects/coin-job/contracts/Coinjob.sol",
  "compiler": {
    "name": "solc",
    "version": "0.8.4+commit.c7e474f2.Emscripten.clang"
  },
  "schemaVersion": "3.4.1",
  "updatedAt": "2021-05-25T06:39:04.340Z",
  "networkType": "ethereum",
  "devdoc": {
    "kind": "dev",
    "methods": {},
    "version": 1
  },
  "userdoc": {
    "kind": "user",
    "methods": {},
    "version": 1
  }
}