{
  "contractName": "Coinjob",
  "abi": [
    {
      "inputs": [],
      "stateMutability": "nonpayable",
      "type": "constructor"
    },
    {
      "anonymous": false,
      "inputs": [],
      "name": "jobRefresh",
      "type": "event"
    },
    {
      "inputs": [],
      "name": "DoNotDisturb",
      "outputs": [
        {
          "internalType": "uint256",
          "name": "",
          "type": "uint256"
        }
      ],
      "stateMutability": "view",
      "type": "function"
    },
    {
      "inputs": [],
      "name": "fee_denominator",
      "outputs": [
        {
          "internalType": "uint256",
          "name": "",
          "type": "uint256"
        }
      ],
      "stateMutability": "view",
      "type": "function"
    },
    {
      "inputs": [],
      "name": "fee_numerator",
      "outputs": [
        {
          "internalType": "uint256",
          "name": "",
          "type": "uint256"
        }
      ],
      "stateMutability": "view",
      "type": "function"
    },
    {
      "inputs": [
        {
          "internalType": "uint256",
          "name": "",
          "type": "uint256"
        }
      ],
      "name": "job",
      "outputs": [
        {
          "internalType": "uint256",
          "name": "id",
          "type": "uint256"
        },
        {
          "internalType": "address",
          "name": "writer",
          "type": "address"
        },
        {
          "internalType": "string",
          "name": "title",
          "type": "string"
        },
        {
          "internalType": "string",
          "name": "content",
          "type": "string"
        },
        {
          "internalType": "uint256",
          "name": "deadline",
          "type": "uint256"
        },
        {
          "internalType": "uint256",
          "name": "reward",
          "type": "uint256"
        },
        {
          "internalType": "uint256",
          "name": "dontdisturb",
          "type": "uint256"
        },
        {
          "internalType": "bool",
          "name": "accepted",
          "type": "bool"
        },
        {
          "internalType": "address",
          "name": "accepter",
          "type": "address"
        },
        {
          "internalType": "string",
          "name": "contact",
          "type": "string"
        },
        {
          "internalType": "enum Coinjob.status",
          "name": "stat",
          "type": "uint8"
        }
      ],
      "stateMutability": "view",
      "type": "function"
    },
    {
      "inputs": [],
      "name": "owner",
      "outputs": [
        {
          "internalType": "address",
          "name": "",
          "type": "address"
        }
      ],
      "stateMutability": "view",
      "type": "function"
    },
    {
      "inputs": [],
      "name": "postContract",
      "outputs": [
        {
          "internalType": "uint256",
          "name": "",
          "type": "uint256"
        }
      ],
      "stateMutability": "view",
      "type": "function"
    },
    {
      "inputs": [
        {
          "internalType": "uint256",
          "name": "value",
          "type": "uint256"
        }
      ],
      "name": "adjustPostContract",
      "outputs": [],
      "stateMutability": "nonpayable",
      "type": "function"
    },
    {
      "inputs": [
        {
          "internalType": "uint256",
          "name": "value",
          "type": "uint256"
        }
      ],
      "name": "adjustDoNotDisturb",
      "outputs": [],
      "stateMutability": "nonpayable",
      "type": "function"
    },
    {
      "inputs": [
        {
          "internalType": "uint256",
          "name": "numerator",
          "type": "uint256"
        },
        {
          "internalType": "uint256",
          "name": "denominator",
          "type": "uint256"
        }
      ],
      "name": "adjustFee",
      "outputs": [],
      "stateMutability": "nonpayable",
      "type": "function"
    },
    {
      "inputs": [],
      "name": "viewBalance",
      "outputs": [
        {
          "internalType": "uint256",
          "name": "b",
          "type": "uint256"
        },
        {
          "internalType": "uint256",
          "name": "o",
          "type": "uint256"
        }
      ],
      "stateMutability": "view",
      "type": "function"
    },
    {
      "inputs": [
        {
          "internalType": "uint256",
          "name": "value",
          "type": "uint256"
        }
      ],
      "name": "ownerMoney",
      "outputs": [],
      "stateMutability": "nonpayable",
      "type": "function"
    },
    {
      "inputs": [
        {
          "internalType": "string",
          "name": "_title",
          "type": "string"
        },
        {
          "internalType": "string",
          "name": "_content",
          "type": "string"
        },
        {
          "internalType": "uint256",
          "name": "_dontdisturb",
          "type": "uint256"
        },
        {
          "internalType": "uint256",
          "name": "_deadline",
          "type": "uint256"
        }
      ],
      "name": "publishJob",
      "outputs": [],
      "stateMutability": "payable",
      "type": "function"
    },
    {
      "inputs": [],
      "name": "allJob",
      "outputs": [
        {
          "components": [
            {
              "internalType": "uint256",
              "name": "id",
              "type": "uint256"
            },
            {
              "internalType": "address",
              "name": "writer",
              "type": "address"
            },
            {
              "internalType": "string",
              "name": "title",
              "type": "string"
            },
            {
              "internalType": "string",
              "name": "content",
              "type": "string"
            },
            {
              "internalType": "uint256",
              "name": "deadline",
              "type": "uint256"
            },
            {
              "internalType": "uint256",
              "name": "reward",
              "type": "uint256"
            },
            {
              "internalType": "uint256",
              "name": "dontdisturb",
              "type": "uint256"
            },
            {
              "internalType": "bool",
              "name": "accepted",
              "type": "bool"
            },
            {
              "internalType": "address",
              "name": "accepter",
              "type": "address"
            },
            {
              "internalType": "string",
              "name": "contact",
              "type": "string"
            },
            {
              "internalType": "enum Coinjob.status",
              "name": "stat",
              "type": "uint8"
            }
          ],
          "internalType": "struct Coinjob.Job[]",
          "name": "",
          "type": "tuple[]"
        }
      ],
      "stateMutability": "view",
      "type": "function"
    },
    {
      "inputs": [
        {
          "internalType": "uint256",
          "name": "_number",
          "type": "uint256"
        },
        {
          "internalType": "string",
          "name": "_contact",
          "type": "string"
        }
      ],
      "name": "acceptJob",
      "outputs": [],
      "stateMutability": "payable",
      "type": "function"
    },
    {
      "inputs": [
        {
          "internalType": "uint256",
          "name": "_number",
          "type": "uint256"
        }
      ],
      "name": "workDone",
      "outputs": [],
      "stateMutability": "nonpayable",
      "type": "function"
    },
    {
      "inputs": [
        {
          "internalType": "uint256",
          "name": "_number",
          "type": "uint256"
        }
      ],
      "name": "finishJob",
      "outputs": [],
      "stateMutability": "nonpayable",
      "type": "function"
    },
    {
      "inputs": [
        {
          "internalType": "uint256",
          "name": "_number",
          "type": "uint256"
        }
      ],
      "name": "giveupJob",
      "outputs": [],
      "stateMutability": "nonpayable",
      "type": "function"
    },
    {
      "inputs": [
        {
          "internalType": "uint256",
          "name": "_page",
          "type": "uint256"
        },
        {
          "internalType": "uint256",
          "name": "_resultsPerPage",
          "type": "uint256"
        }
      ],
      "name": "getPaginatedSquares",
      "outputs": [
        {
          "components": [
            {
              "internalType": "uint256",
              "name": "id",
              "type": "uint256"
            },
            {
              "internalType": "address",
              "name": "writer",
              "type": "address"
            },
            {
              "internalType": "string",
              "name": "title",
              "type": "string"
            },
            {
              "internalType": "string",
              "name": "content",
              "type": "string"
            },
            {
              "internalType": "uint256",
              "name": "deadline",
              "type": "uint256"
            },
            {
              "internalType": "uint256",
              "name": "reward",
              "type": "uint256"
            },
            {
              "internalType": "uint256",
              "name": "dontdisturb",
              "type": "uint256"
            },
            {
              "internalType": "bool",
              "name": "accepted",
              "type": "bool"
            },
            {
              "internalType": "address",
              "name": "accepter",
              "type": "address"
            },
            {
              "internalType": "string",
              "name": "contact",
              "type": "string"
            },
            {
              "internalType": "enum Coinjob.status",
              "name": "stat",
              "type": "uint8"
            }
          ],
          "internalType": "struct Coinjob.Job[]",
          "name": "",
          "type": "tuple[]"
        }
      ],
      "stateMutability": "view",
      "type": "function"
    }
  ],
  "bytecode": "0x608060405266b1a2bc2ec50000600155662386f26fc100006002556000600355600a600455606460055534801561003557600080fd5b5033600660006101000a81548173ffffffffffffffffffffffffffffffffffffffff021916908373ffffffffffffffffffffffffffffffffffffffff16021790555061347f806100866000396000f3fe6080604052600436106101095760003560e01c80638da5cb5b11610095578063dc9d75b011610064578063dc9d75b01461033f578063e47eb3a61461036a578063eff32b3d14610386578063f809cefa146103c3578063f8330127146103ee57610109565b80638da5cb5b146102a457806398cbe771146102cf578063b0c4add1146102f8578063d8af95a81461031457610109565b80633ff1e05b116100dc5780633ff1e05b146101d0578063484cb525146101fc5780634ad65106146102255780636e3589a21461025057806385cb230f1461027957610109565b80630a2eee301461010e5780632329e48c146101375780632e6c28301461017e5780633a5776b1146101a7575b600080fd5b34801561011a57600080fd5b5061013560048036038101906101309190612541565b610417565b005b34801561014357600080fd5b5061015e60048036038101906101599190612541565b6108a1565b6040516101759b9a99989796959493929190612be6565b60405180910390f35b34801561018a57600080fd5b506101a560048036038101906101a09190612541565b610afd565b005b3480156101b357600080fd5b506101ce60048036038101906101c99190612541565b610b61565b005b3480156101dc57600080fd5b506101e5610bc5565b6040516101f3929190612ca6565b60405180910390f35b34801561020857600080fd5b50610223600480360381019061021e91906125be565b610c65565b005b34801561023157600080fd5b5061023a610cd1565b6040516102479190612bcb565b60405180910390f35b34801561025c57600080fd5b5061027760048036038101906102729190612541565b610cd7565b005b34801561028557600080fd5b5061028e610f3b565b60405161029b9190612bcb565b60405180910390f35b3480156102b057600080fd5b506102b9610f41565b6040516102c69190612a0e565b60405180910390f35b3480156102db57600080fd5b506102f660048036038101906102f19190612541565b610f67565b005b610312600480360381019061030d919061256a565b61102d565b005b34801561032057600080fd5b50610329611366565b6040516103369190612bcb565b60405180910390f35b34801561034b57600080fd5b5061035461136c565b6040516103619190612bcb565b60405180910390f35b610384600480360381019061037f91906124ae565b611372565b005b34801561039257600080fd5b506103ad60048036038101906103a891906125be565b6116c0565b6040516103ba9190612a29565b60405180910390f35b3480156103cf57600080fd5b506103d8611c57565b6040516103e59190612a29565b60405180910390f35b3480156103fa57600080fd5b5061041560048036038101906104109190612541565b611fe3565b005b6000805490508110801561042c575060008110155b61046b576040517f08c379a000000000000000000000000000000000000000000000000000000000815260040161046290612b4b565b60405180910390fd5b60008082815481106104a6577f4e487b7100000000000000000000000000000000000000000000000000000000600052603260045260246000fd5b90600052602060002090600a020190508060070160019054906101000a900473ffffffffffffffffffffffffffffffffffffffff1673ffffffffffffffffffffffffffffffffffffffff163373ffffffffffffffffffffffffffffffffffffffff1614610548576040517f08c379a000000000000000000000000000000000000000000000000000000000815260040161053f90612a4b565b60405180910390fd5b60016002811115610582577f4e487b7100000000000000000000000000000000000000000000000000000000600052602160045260246000fd5b8160090160009054906101000a900460ff1660028111156105cc577f4e487b7100000000000000000000000000000000000000000000000000000000600052602160045260246000fd5b141561060d576040517f08c379a000000000000000000000000000000000000000000000000000000000815260040161060490612aeb565b60405180910390fd5b8060010160009054906101000a900473ffffffffffffffffffffffffffffffffffffffff1673ffffffffffffffffffffffffffffffffffffffff163373ffffffffffffffffffffffffffffffffffffffff161415610741578060070160009054906101000a900460ff16156106b7576040517f08c379a00000000000000000000000000000000000000000000000000000000081526004016106ae90612a8b565b60405180910390fd5b60018160090160006101000a81548160ff02191690836002811115610705577f4e487b7100000000000000000000000000000000000000000000000000000000600052602160045260246000fd5b021790555061073c8160010160009054906101000a900473ffffffffffffffffffffffffffffffffffffffff16826005015461225c565b610871565b8060070160009054906101000a900460ff16610792576040517f08c379a000000000000000000000000000000000000000000000000000000000815260040161078990612aab565b60405180910390fd5b60008160070160006101000a81548160ff021916908315150217905550604051806020016040528060008152508160080190805190602001906107d69291906122ce565b506108098160070160019054906101000a900473ffffffffffffffffffffffffffffffffffffffff16826006015461225c565b8060010160009054906101000a900473ffffffffffffffffffffffffffffffffffffffff168160070160016101000a81548173ffffffffffffffffffffffffffffffffffffffff021916908373ffffffffffffffffffffffffffffffffffffffff1602179055505b7f617cbd69657c90b6fe07e5e52a305c13054002957d55fd3a7bc594180590942860405160405180910390a15050565b600081815481106108b157600080fd5b90600052602060002090600a02016000915090508060000154908060010160009054906101000a900473ffffffffffffffffffffffffffffffffffffffff169080600201805461090090612f4f565b80601f016020809104026020016040519081016040528092919081815260200182805461092c90612f4f565b80156109795780601f1061094e57610100808354040283529160200191610979565b820191906000526020600020905b81548152906001019060200180831161095c57829003601f168201915b50505050509080600301805461098e90612f4f565b80601f01602080910402602001604051908101604052809291908181526020018280546109ba90612f4f565b8015610a075780601f106109dc57610100808354040283529160200191610a07565b820191906000526020600020905b8154815290600101906020018083116109ea57829003601f168201915b5050505050908060040154908060050154908060060154908060070160009054906101000a900460ff16908060070160019054906101000a900473ffffffffffffffffffffffffffffffffffffffff1690806008018054610a6790612f4f565b80601f0160208091040260200160405190810160405280929190818152602001828054610a9390612f4f565b8015610ae05780601f10610ab557610100808354040283529160200191610ae0565b820191906000526020600020905b815481529060010190602001808311610ac357829003601f168201915b5050505050908060090160009054906101000a900460ff1690508b565b600660009054906101000a900473ffffffffffffffffffffffffffffffffffffffff1673ffffffffffffffffffffffffffffffffffffffff163373ffffffffffffffffffffffffffffffffffffffff1614610b5757600080fd5b8060018190555050565b600660009054906101000a900473ffffffffffffffffffffffffffffffffffffffff1673ffffffffffffffffffffffffffffffffffffffff163373ffffffffffffffffffffffffffffffffffffffff1614610bbb57600080fd5b8060028190555050565b600080600660009054906101000a900473ffffffffffffffffffffffffffffffffffffffff1673ffffffffffffffffffffffffffffffffffffffff163373ffffffffffffffffffffffffffffffffffffffff1614610c2257600080fd5b479150600660009054906101000a900473ffffffffffffffffffffffffffffffffffffffff1673ffffffffffffffffffffffffffffffffffffffff163190509091565b600660009054906101000a900473ffffffffffffffffffffffffffffffffffffffff1673ffffffffffffffffffffffffffffffffffffffff163373ffffffffffffffffffffffffffffffffffffffff1614610cbf57600080fd5b81600481905550806005819055505050565b60015481565b6000808281548110610d12577f4e487b7100000000000000000000000000000000000000000000000000000000600052603260045260246000fd5b90600052602060002090600a02019050600280811115610d5b577f4e487b7100000000000000000000000000000000000000000000000000000000600052602160045260246000fd5b8160090160009054906101000a900460ff166002811115610da5577f4e487b7100000000000000000000000000000000000000000000000000000000600052602160045260246000fd5b14610de5576040517f08c379a0000000000000000000000000000000000000000000000000000000008152600401610ddc90612bab565b60405180910390fd5b8060010160009054906101000a900473ffffffffffffffffffffffffffffffffffffffff1673ffffffffffffffffffffffffffffffffffffffff163373ffffffffffffffffffffffffffffffffffffffff1614610e77576040517f08c379a0000000000000000000000000000000000000000000000000000000008152600401610e6e90612b2b565b60405180910390fd5b60018160090160006101000a81548160ff02191690836002811115610ec5577f4e487b7100000000000000000000000000000000000000000000000000000000600052602160045260246000fd5b0217905550610f0b8160070160019054906101000a900473ffffffffffffffffffffffffffffffffffffffff1682600601548360050154610f069190612d8b565b61225c565b7f617cbd69657c90b6fe07e5e52a305c13054002957d55fd3a7bc594180590942860405160405180910390a15050565b60025481565b600660009054906101000a900473ffffffffffffffffffffffffffffffffffffffff1681565b600660009054906101000a900473ffffffffffffffffffffffffffffffffffffffff1673ffffffffffffffffffffffffffffffffffffffff163373ffffffffffffffffffffffffffffffffffffffff1614610fc157600080fd5b600660009054906101000a900473ffffffffffffffffffffffffffffffffffffffff1673ffffffffffffffffffffffffffffffffffffffff166108fc829081150290604051600060405180830381858888f19350505050158015611029573d6000803e3d6000fd5b5050565b60008054905082108015611042575060008210155b611081576040517f08c379a000000000000000000000000000000000000000000000000000000000815260040161107890612b4b565b60405180910390fd5b60008083815481106110bc577f4e487b7100000000000000000000000000000000000000000000000000000000600052603260045260246000fd5b90600052602060002090600a020190508060010160009054906101000a900473ffffffffffffffffffffffffffffffffffffffff1673ffffffffffffffffffffffffffffffffffffffff163373ffffffffffffffffffffffffffffffffffffffff16141561115f576040517f08c379a000000000000000000000000000000000000000000000000000000000815260040161115690612b8b565b60405180910390fd5b60016002811115611199577f4e487b7100000000000000000000000000000000000000000000000000000000600052602160045260246000fd5b8160090160009054906101000a900460ff1660028111156111e3577f4e487b7100000000000000000000000000000000000000000000000000000000600052602160045260246000fd5b1415611224576040517f08c379a000000000000000000000000000000000000000000000000000000000815260040161121b90612aeb565b60405180910390fd5b8060070160009054906101000a900460ff1615611276576040517f08c379a000000000000000000000000000000000000000000000000000000000815260040161126d90612b6b565b60405180910390fd5b806006015434146112bc576040517f08c379a00000000000000000000000000000000000000000000000000000000081526004016112b390612a6b565b60405180910390fd5b338160070160016101000a81548173ffffffffffffffffffffffffffffffffffffffff021916908373ffffffffffffffffffffffffffffffffffffffff16021790555060018160070160006101000a81548160ff021916908315150217905550818160080190805190602001906113349291906122ce565b507f617cbd69657c90b6fe07e5e52a305c13054002957d55fd3a7bc594180590942860405160405180910390a1505050565b60045481565b60055481565b6001543410156113b7576040517f08c379a00000000000000000000000000000000000000000000000000000000081526004016113ae90612acb565b60405180910390fd5b6002548210156113fc576040517f08c379a00000000000000000000000000000000000000000000000000000000081526004016113f390612b0b565b60405180910390fd5b6000814261140a9190612d8b565b9050600060405180610160016040528060008054905081526020013373ffffffffffffffffffffffffffffffffffffffff1681526020018781526020018681526020018381526020013481526020018581526020016000151581526020013373ffffffffffffffffffffffffffffffffffffffff168152602001604051806020016040528060008152508152602001600060028111156114d3577f4e487b7100000000000000000000000000000000000000000000000000000000600052602160045260246000fd5b815250905060008190806001815401808255809150506001900390600052602060002090600a02016000909190919091506000820151816000015560208201518160010160006101000a81548173ffffffffffffffffffffffffffffffffffffffff021916908373ffffffffffffffffffffffffffffffffffffffff16021790555060408201518160020190805190602001906115719291906122ce565b50606082015181600301908051906020019061158e9291906122ce565b506080820151816004015560a0820151816005015560c0820151816006015560e08201518160070160006101000a81548160ff0219169083151502179055506101008201518160070160016101000a81548173ffffffffffffffffffffffffffffffffffffffff021916908373ffffffffffffffffffffffffffffffffffffffff1602179055506101208201518160080190805190602001906116329291906122ce565b506101408201518160090160006101000a81548160ff02191690836002811115611685577f4e487b7100000000000000000000000000000000000000000000000000000000600052602160045260246000fd5b021790555050507f617cbd69657c90b6fe07e5e52a305c13054002957d55fd3a7bc594180590942860405160405180910390a1505050505050565b606060008284846116d19190612e12565b6116db9190612e6c565b9050600080805490501480611700575060016000805490506116fd9190612e6c565b81115b1561178857600067ffffffffffffffff811115611746577f4e487b7100000000000000000000000000000000000000000000000000000000600052604160045260246000fd5b60405190808252806020026020018201604052801561177f57816020015b61176c612354565b8152602001906001900390816117645790505b50915050611c51565b6000839050600080549050848661179f9190612e12565b11156117b957836000805490506117b69190612ffb565b90505b60008167ffffffffffffffff8111156117fb577f4e487b7100000000000000000000000000000000000000000000000000000000600052604160045260246000fd5b60405190808252806020026020018201604052801561183457816020015b611821612354565b8152602001906001900390816118195790505b50905060005b86866118469190612e12565b841015611c4957600080549050841015611c235760008481548110611894577f4e487b7100000000000000000000000000000000000000000000000000000000600052603260045260246000fd5b90600052602060002090600a020160405180610160016040529081600082015481526020016001820160009054906101000a900473ffffffffffffffffffffffffffffffffffffffff1673ffffffffffffffffffffffffffffffffffffffff1673ffffffffffffffffffffffffffffffffffffffff16815260200160028201805461191e90612f4f565b80601f016020809104026020016040519081016040528092919081815260200182805461194a90612f4f565b80156119975780601f1061196c57610100808354040283529160200191611997565b820191906000526020600020905b81548152906001019060200180831161197a57829003601f168201915b505050505081526020016003820180546119b090612f4f565b80601f01602080910402602001604051908101604052809291908181526020018280546119dc90612f4f565b8015611a295780601f106119fe57610100808354040283529160200191611a29565b820191906000526020600020905b815481529060010190602001808311611a0c57829003601f168201915b505050505081526020016004820154815260200160058201548152602001600682015481526020016007820160009054906101000a900460ff161515151581526020016007820160019054906101000a900473ffffffffffffffffffffffffffffffffffffffff1673ffffffffffffffffffffffffffffffffffffffff1673ffffffffffffffffffffffffffffffffffffffff168152602001600882018054611ad190612f4f565b80601f0160208091040260200160405190810160405280929190818152602001828054611afd90612f4f565b8015611b4a5780601f10611b1f57610100808354040283529160200191611b4a565b820191906000526020600020905b815481529060010190602001808311611b2d57829003601f168201915b505050505081526020016009820160009054906101000a900460ff166002811115611b9e577f4e487b7100000000000000000000000000000000000000000000000000000000600052602160045260246000fd5b6002811115611bd6577f4e487b7100000000000000000000000000000000000000000000000000000000600052602160045260246000fd5b81525050828281518110611c13577f4e487b7100000000000000000000000000000000000000000000000000000000600052603260045260246000fd5b6020026020010181905250611c28565b611c49565b8080611c3390612fb2565b9150508380611c4190612fb2565b94505061183a565b819450505050505b92915050565b60606000805480602002602001604051908101604052809291908181526020016000905b82821015611fda57838290600052602060002090600a020160405180610160016040529081600082015481526020016001820160009054906101000a900473ffffffffffffffffffffffffffffffffffffffff1673ffffffffffffffffffffffffffffffffffffffff1673ffffffffffffffffffffffffffffffffffffffff168152602001600282018054611d0f90612f4f565b80601f0160208091040260200160405190810160405280929190818152602001828054611d3b90612f4f565b8015611d885780601f10611d5d57610100808354040283529160200191611d88565b820191906000526020600020905b815481529060010190602001808311611d6b57829003601f168201915b50505050508152602001600382018054611da190612f4f565b80601f0160208091040260200160405190810160405280929190818152602001828054611dcd90612f4f565b8015611e1a5780601f10611def57610100808354040283529160200191611e1a565b820191906000526020600020905b815481529060010190602001808311611dfd57829003601f168201915b505050505081526020016004820154815260200160058201548152602001600682015481526020016007820160009054906101000a900460ff161515151581526020016007820160019054906101000a900473ffffffffffffffffffffffffffffffffffffffff1673ffffffffffffffffffffffffffffffffffffffff1673ffffffffffffffffffffffffffffffffffffffff168152602001600882018054611ec290612f4f565b80601f0160208091040260200160405190810160405280929190818152602001828054611eee90612f4f565b8015611f3b5780601f10611f1057610100808354040283529160200191611f3b565b820191906000526020600020905b815481529060010190602001808311611f1e57829003601f168201915b505050505081526020016009820160009054906101000a900460ff166002811115611f8f577f4e487b7100000000000000000000000000000000000000000000000000000000600052602160045260246000fd5b6002811115611fc7577f4e487b7100000000000000000000000000000000000000000000000000000000600052602160045260246000fd5b8152505081526020019060010190611c7b565b50505050905090565b60008054905081108015611ff8575060008110155b612037576040517f08c379a000000000000000000000000000000000000000000000000000000000815260040161202e90612b4b565b60405180910390fd5b6000808281548110612072577f4e487b7100000000000000000000000000000000000000000000000000000000600052603260045260246000fd5b90600052602060002090600a020190508060070160019054906101000a900473ffffffffffffffffffffffffffffffffffffffff1673ffffffffffffffffffffffffffffffffffffffff163373ffffffffffffffffffffffffffffffffffffffff1614612114576040517f08c379a000000000000000000000000000000000000000000000000000000000815260040161210b90612a4b565b60405180910390fd5b6001600281111561214e577f4e487b7100000000000000000000000000000000000000000000000000000000600052602160045260246000fd5b8160090160009054906101000a900460ff166002811115612198577f4e487b7100000000000000000000000000000000000000000000000000000000600052602160045260246000fd5b14156121d9576040517f08c379a00000000000000000000000000000000000000000000000000000000081526004016121d090612aeb565b60405180910390fd5b60028160090160006101000a81548160ff02191690836002811115612227577f4e487b7100000000000000000000000000000000000000000000000000000000600052602160045260246000fd5b02179055507f617cbd69657c90b6fe07e5e52a305c13054002957d55fd3a7bc594180590942860405160405180910390a15050565b8173ffffffffffffffffffffffffffffffffffffffff166108fc6005546004546005546122899190612e6c565b846122949190612e12565b61229e9190612de1565b9081150290604051600060405180830381858888f193505050501580156122c9573d6000803e3d6000fd5b505050565b8280546122da90612f4f565b90600052602060002090601f0160209004810192826122fc5760008555612343565b82601f1061231557805160ff1916838001178555612343565b82800160010185558215612343579182015b82811115612342578251825591602001919060010190612327565b5b5090506123509190612414565b5090565b60405180610160016040528060008152602001600073ffffffffffffffffffffffffffffffffffffffff1681526020016060815260200160608152602001600081526020016000815260200160008152602001600015158152602001600073ffffffffffffffffffffffffffffffffffffffff168152602001606081526020016000600281111561240e577f4e487b7100000000000000000000000000000000000000000000000000000000600052602160045260246000fd5b81525090565b5b8082111561242d576000816000905550600101612415565b5090565b600061244461243f84612cf4565b612ccf565b90508281526020810184848401111561245c57600080fd5b612467848285612f0d565b509392505050565b600082601f83011261248057600080fd5b8135612490848260208601612431565b91505092915050565b6000813590506124a881613432565b92915050565b600080600080608085870312156124c457600080fd5b600085013567ffffffffffffffff8111156124de57600080fd5b6124ea8782880161246f565b945050602085013567ffffffffffffffff81111561250757600080fd5b6125138782880161246f565b935050604061252487828801612499565b925050606061253587828801612499565b91505092959194509250565b60006020828403121561255357600080fd5b600061256184828501612499565b91505092915050565b6000806040838503121561257d57600080fd5b600061258b85828601612499565b925050602083013567ffffffffffffffff8111156125a857600080fd5b6125b48582860161246f565b9150509250929050565b600080604083850312156125d157600080fd5b60006125df85828601612499565b92505060206125f085828601612499565b9150509250929050565b600061260683836128f3565b905092915050565b61261781612ea0565b82525050565b61262681612ea0565b82525050565b600061263782612d35565b6126418185612d58565b93508360208202850161265385612d25565b8060005b8581101561268f578484038952815161267085826125fa565b945061267b83612d4b565b925060208a01995050600181019050612657565b50829750879550505050505092915050565b6126aa81612eb2565b82525050565b6126b981612eb2565b82525050565b6126c881612efb565b82525050565b6126d781612efb565b82525050565b60006126e882612d40565b6126f28185612d69565b9350612702818560208601612f1c565b61270b81613117565b840191505092915050565b600061272182612d40565b61272b8185612d7a565b935061273b818560208601612f1c565b61274481613117565b840191505092915050565b600061275c603f83612d7a565b915061276782613128565b604082019050919050565b600061277f605883612d7a565b915061278a82613177565b606082019050919050565b60006127a2603b83612d7a565b91506127ad826131ec565b604082019050919050565b60006127c5603183612d7a565b91506127d08261323b565b604082019050919050565b60006127e8601783612d7a565b91506127f38261328a565b602082019050919050565b600061280b602683612d7a565b9150612816826132b3565b604082019050919050565b600061282e601983612d7a565b915061283982613302565b602082019050919050565b6000612851601e83612d7a565b915061285c8261332b565b602082019050919050565b6000612874601f83612d7a565b915061287f82613354565b602082019050919050565b6000612897600f83612d7a565b91506128a28261337d565b602082019050919050565b60006128ba601f83612d7a565b91506128c5826133a6565b602082019050919050565b60006128dd603283612d7a565b91506128e8826133cf565b604082019050919050565b60006101608301600083015161290c60008601826129f0565b50602083015161291f602086018261260e565b506040830151848203604086015261293782826126dd565b9150506060830151848203606086015261295182826126dd565b915050608083015161296660808601826129f0565b5060a083015161297960a08601826129f0565b5060c083015161298c60c08601826129f0565b5060e083015161299f60e08601826126a1565b506101008301516129b461010086018261260e565b506101208301518482036101208601526129ce82826126dd565b9150506101408301516129e56101408601826126bf565b508091505092915050565b6129f981612ef1565b82525050565b612a0881612ef1565b82525050565b6000602082019050612a23600083018461261d565b92915050565b60006020820190508181036000830152612a43818461262c565b905092915050565b60006020820190508181036000830152612a648161274f565b9050919050565b60006020820190508181036000830152612a8481612772565b9050919050565b60006020820190508181036000830152612aa481612795565b9050919050565b60006020820190508181036000830152612ac4816127b8565b9050919050565b60006020820190508181036000830152612ae4816127db565b9050919050565b60006020820190508181036000830152612b04816127fe565b9050919050565b60006020820190508181036000830152612b2481612821565b9050919050565b60006020820190508181036000830152612b4481612844565b9050919050565b60006020820190508181036000830152612b6481612867565b9050919050565b60006020820190508181036000830152612b848161288a565b9050919050565b60006020820190508181036000830152612ba4816128ad565b9050919050565b60006020820190508181036000830152612bc4816128d0565b9050919050565b6000602082019050612be060008301846129ff565b92915050565b600061016082019050612bfc600083018e6129ff565b612c09602083018d61261d565b8181036040830152612c1b818c612716565b90508181036060830152612c2f818b612716565b9050612c3e608083018a6129ff565b612c4b60a08301896129ff565b612c5860c08301886129ff565b612c6560e08301876126b0565b612c7361010083018661261d565b818103610120830152612c868185612716565b9050612c966101408301846126ce565b9c9b505050505050505050505050565b6000604082019050612cbb60008301856129ff565b612cc860208301846129ff565b9392505050565b6000612cd9612cea565b9050612ce58282612f81565b919050565b6000604051905090565b600067ffffffffffffffff821115612d0f57612d0e6130e8565b5b612d1882613117565b9050602081019050919050565b6000819050602082019050919050565b600081519050919050565b600081519050919050565b6000602082019050919050565b600082825260208201905092915050565b600082825260208201905092915050565b600082825260208201905092915050565b6000612d9682612ef1565b9150612da183612ef1565b9250827fffffffffffffffffffffffffffffffffffffffffffffffffffffffffffffffff03821115612dd657612dd561302c565b5b828201905092915050565b6000612dec82612ef1565b9150612df783612ef1565b925082612e0757612e0661305b565b5b828204905092915050565b6000612e1d82612ef1565b9150612e2883612ef1565b9250817fffffffffffffffffffffffffffffffffffffffffffffffffffffffffffffffff0483118215151615612e6157612e6061302c565b5b828202905092915050565b6000612e7782612ef1565b9150612e8283612ef1565b925082821015612e9557612e9461302c565b5b828203905092915050565b6000612eab82612ed1565b9050919050565b60008115159050919050565b6000819050612ecc8261341e565b919050565b600073ffffffffffffffffffffffffffffffffffffffff82169050919050565b6000819050919050565b6000612f0682612ebe565b9050919050565b82818337600083830152505050565b60005b83811015612f3a578082015181840152602081019050612f1f565b83811115612f49576000848401525b50505050565b60006002820490506001821680612f6757607f821691505b60208210811415612f7b57612f7a6130b9565b5b50919050565b612f8a82613117565b810181811067ffffffffffffffff82111715612fa957612fa86130e8565b5b80604052505050565b6000612fbd82612ef1565b91507fffffffffffffffffffffffffffffffffffffffffffffffffffffffffffffffff821415612ff057612fef61302c565b5b600182019050919050565b600061300682612ef1565b915061301183612ef1565b9250826130215761302061305b565b5b828206905092915050565b7f4e487b7100000000000000000000000000000000000000000000000000000000600052601160045260246000fd5b7f4e487b7100000000000000000000000000000000000000000000000000000000600052601260045260246000fd5b7f4e487b7100000000000000000000000000000000000000000000000000000000600052602160045260246000fd5b7f4e487b7100000000000000000000000000000000000000000000000000000000600052602260045260246000fd5b7f4e487b7100000000000000000000000000000000000000000000000000000000600052604160045260246000fd5b6000601f19601f8301169050919050565b7f596f7520417265204e6f7420746865204d656d626572206f66204a6f622e205060008201527f6c6561736520436865636b20796f75722057616c6c6574204164647265737300602082015250565b7f596f752053686f756c642050617920746f2073686f7720796f7520617265206e60008201527f6f74207363616d6d6572202820796f7572206d6f6e65792077696c6c2070617960208201527f6261636b206166746572206a6f6220697320646f6e6520290000000000000000604082015250565b7f596f752043616e206e6f7420436c6f736520596f7572204a6f62207768696c6560008201527f20536f6d656f6e6520697320576f726b696e6720666f7220796f750000000000602082015250565b7f4a6f62204973204e6f7420537461727465642e20536f2054686572652069732060008201527f6e6f2077617920746f2067697665207570000000000000000000000000000000602082015250565b7f4a6f622052657761726420697320746f6f206368656170000000000000000000600082015250565b7f54686973204a6f6220697320446f6e652e204a6f6220476f6f64204a6f62204260008201527f6164204a6f620000000000000000000000000000000000000000000000000000602082015250565b7f446f4e6f744469737475726220697320746f6f20636865617000000000000000600082015250565b7f4f6e6c79205772697465722063616e2066696e69736820746865206a6f620000600082015250565b7f596f7520417265204c6f6f6b696e6720466f7220412057726f6e67204a6f6200600082015250565b7f4a6f6220496e2050726f67726573730000000000000000000000000000000000600082015250565b7f596f752043616e277420436f2d576f726b207769746820596f757273656c6600600082015250565b7f576f726b657220646f65736e27742066696e69736564206a6f62206f7220416c60008201527f72656164792066696e6973686564206a6f620000000000000000000000000000602082015250565b6003811061342f5761342e61308a565b5b50565b61343b81612ef1565b811461344657600080fd5b5056fea26469706673582212205ddef24e9d31461fffa1c0911ba27707caf9ea438213a7a20e56b95e44f08ec264736f6c63430008040033",
  "immutableReferences": {},
  "source": "pragma solidity >=0.8.0 <0.9.0;\r\npragma experimental ABIEncoderV2;\r\n\r\ncontract Coinjob {\r\n    enum status {open, finish, workerDone}\r\n    // open = \r\n    // finish =  \r\n    // workerDone =    \r\n    // bossDone =      (    )\r\n\r\n    // workerDone  bossDone Job accepted true     .\r\n\r\n    struct Job {\r\n        uint256 id;\r\n        address writer;\r\n        string title;\r\n        string content;\r\n        uint256 deadline;\r\n        uint256 reward;\r\n        uint256 dontdisturb;\r\n        bool accepted;\r\n        address accepter;\r\n        string contact; //     (?)\r\n        status stat;\r\n    }\r\n\r\n    Job[] public job;\r\n\r\n    event jobRefresh();\r\n\r\n    //\r\n    uint256 public postContract = 0.05 ether;\r\n    uint256 public DoNotDisturb = 0.01 ether;\r\n    //     .\r\n    //            .\r\n    //      .\r\n    //\r\n\r\n    uint256 Coinjob_ether = 0;\r\n    uint256 public fee_numerator = 10;\r\n    uint256 public fee_denominator = 100;\r\n\r\n    address public owner;\r\n\r\n    modifier onlyOwner() {\r\n        require(msg.sender == owner);\r\n        _;\r\n    }\r\n\r\n    constructor() {\r\n        owner = msg.sender;\r\n    }\r\n\r\n    function adjustPostContract(uint256 value) public onlyOwner {\r\n        postContract = value;\r\n    }\r\n\r\n    function adjustDoNotDisturb(uint256 value) public onlyOwner {\r\n        DoNotDisturb = value;\r\n    }\r\n\r\n    function adjustFee(uint256 numerator, uint256 denominator)\r\n        public\r\n        onlyOwner\r\n    {\r\n        fee_numerator = numerator;\r\n        fee_denominator = denominator;\r\n    }\r\n\r\n    function viewBalance()\r\n        public\r\n        view\r\n        onlyOwner\r\n        returns (uint256 b, uint256 o)\r\n    {\r\n        b = address(this).balance;\r\n        o = owner.balance;\r\n    }\r\n\r\n    function ownerMoney(uint256 value) public onlyOwner {\r\n        payable(owner).transfer(value);\r\n    }\r\n\r\n    function paying(address addr, uint256 value) private {\r\n        payable(addr).transfer(\r\n            (value * (fee_denominator - fee_numerator)) / fee_denominator\r\n        );\r\n    }\r\n\r\n    function publishJob(\r\n        string memory _title,\r\n        string memory _content,\r\n        uint256 _dontdisturb,\r\n        uint256 _deadline\r\n    ) public payable {\r\n        // dontdisturb  ether\r\n        require(msg.value >= postContract, \"Job Reward is too cheap\");\r\n        require(_dontdisturb >= DoNotDisturb, \"DoNotDisturb is too cheap\");\r\n        uint256 deadline = block.timestamp + _deadline;\r\n        Job memory newJob =\r\n            Job(\r\n                job.length,\r\n                msg.sender,\r\n                _title,\r\n                _content,\r\n                deadline,\r\n                msg.value,\r\n                _dontdisturb,\r\n                false,\r\n                msg.sender,\r\n                \"\",\r\n                status.open\r\n            );\r\n        job.push(newJob);\r\n        emit jobRefresh();\r\n    }\r\n\r\n    function allJob() public view returns (Job[] memory) {\r\n        return job;\r\n    }\r\n\r\n    function acceptJob(uint256 _number, string memory _contact) public payable {\r\n        require(\r\n            _number < job.length && _number >= 0,\r\n            \"You Are Looking For A Wrong Job\"\r\n        );\r\n        Job storage _thisjob = job[_number];\r\n        require(\r\n            msg.sender != _thisjob.writer,\r\n            \"You Can't Co-Work with Yourself\"\r\n        );\r\n        require(\r\n            _thisjob.stat != status.finish,\r\n            \"This Job is Done. Job Good Job Bad Job\"\r\n        );\r\n        require(!_thisjob.accepted, \"Job In Progress\");\r\n        require(\r\n            msg.value == _thisjob.dontdisturb,\r\n            \"You Should Pay to show you are not scammer ( your money will payback after job is done )\"\r\n        );\r\n        _thisjob.accepter = msg.sender;\r\n        _thisjob.accepted = true;\r\n        _thisjob.contact = _contact;\r\n        emit jobRefresh();\r\n    }\r\n\r\n    function workDone(uint256 _number) public {\r\n        require(\r\n            _number < job.length && _number >= 0,\r\n            \"You Are Looking For A Wrong Job\"\r\n        );\r\n        Job storage _thisjob = job[_number];\r\n        require(\r\n            msg.sender == _thisjob.accepter,\r\n            \"You Are Not the Member of Job. Please Check your Wallet Address\"\r\n        );\r\n        require(\r\n            _thisjob.stat != status.finish,\r\n            \"This Job is Done. Job Good Job Bad Job\"\r\n        );\r\n        _thisjob.stat = status.workerDone;\r\n        emit jobRefresh();\r\n    }\r\n\r\n    function finishJob(uint256 _number) public {\r\n        Job storage _thisjob = job[_number];\r\n        require(\r\n            _thisjob.stat == status.workerDone,\r\n            \"Worker doesn't finised job or Already finished job\"\r\n        );\r\n        require(\r\n            msg.sender == _thisjob.writer,\r\n            \"Only Writer can finish the job\"\r\n        );\r\n        _thisjob.stat = status.finish;\r\n        paying(_thisjob.accepter, (_thisjob.reward + _thisjob.dontdisturb));\r\n        emit jobRefresh();\r\n    }\r\n\r\n    function giveupJob(uint256 _number) public {\r\n        require(\r\n            _number < job.length && _number >= 0,\r\n            \"You Are Looking For A Wrong Job\"\r\n        );\r\n        Job storage _thisjob = job[_number];\r\n        require(\r\n            msg.sender == _thisjob.accepter,\r\n            \"You Are Not the Member of Job. Please Check your Wallet Address\"\r\n        );\r\n        require(\r\n            _thisjob.stat != status.finish,\r\n            \"This Job is Done. Job Good Job Bad Job\"\r\n        );\r\n        if (msg.sender == _thisjob.writer) {\r\n            require(\r\n                !_thisjob.accepted,\r\n                \"You Can not Close Your Job while Someone is Working for you\"\r\n            );\r\n            _thisjob.stat = status.finish;\r\n            paying(_thisjob.writer, _thisjob.reward);\r\n        } else {\r\n            require(\r\n                _thisjob.accepted,\r\n                \"Job Is Not Started. So There is no way to give up\"\r\n            );\r\n            _thisjob.accepted = false;\r\n            _thisjob.contact = \"\";\r\n            paying(_thisjob.accepter, _thisjob.dontdisturb);\r\n            _thisjob.accepter = _thisjob.writer;\r\n        }\r\n        emit jobRefresh();\r\n    }\r\n\r\n    function getPaginatedSquares(uint256 _page, uint256 _resultsPerPage)\r\n        public\r\n        view\r\n        returns (Job[] memory)\r\n    {\r\n        uint256 _jobIndex = _resultsPerPage * _page - _resultsPerPage;\r\n\r\n        if (job.length == 0 || _jobIndex > job.length - 1) {\r\n            return new Job[](0);\r\n        }\r\n\r\n        uint256 _size = _resultsPerPage;\r\n        if (_page * _resultsPerPage > job.length) {\r\n            _size = job.length % _resultsPerPage;\r\n        }\r\n        Job[] memory _jobs = new Job[](_size);\r\n        uint256 _returnCounter = 0;\r\n        for (_jobIndex; _jobIndex < _resultsPerPage * _page; _jobIndex++) {\r\n            if (_jobIndex < job.length) {\r\n                _jobs[_returnCounter] = job[_jobIndex];\r\n            } else {\r\n                break;\r\n            }\r\n            _returnCounter++;\r\n        }\r\n\r\n        return _jobs;\r\n    }\r\n}\r\n",
  "sourcePath": "D:/Backup/Projects/coin-job/contracts/Coinjob.sol",
  "compiler": {
    "name": "solc",
    "version": "0.8.4+commit.c7e474f2.Emscripten.clang"
  },
  "schemaVersion": "3.4.1",
  "updatedAt": "2021-05-25T07:11:11.277Z",
  "devdoc": {
    "kind": "dev",
    "methods": {},
    "version": 1
  },
  "userdoc": {
    "kind": "user",
    "methods": {},
    "version": 1
  }
}